{
  "abi": [
    {
      "type": "constructor",
      "inputs": [],
      "stateMutability": "nonpayable"
    },
    {
      "type": "function",
      "name": "UPGRADE_INTERFACE_VERSION",
      "inputs": [],
      "outputs": [
        {
          "name": "",
          "type": "string",
          "internalType": "string"
        }
      ],
      "stateMutability": "view"
    },
    {
      "type": "function",
      "name": "_isValidDataSource",
      "inputs": [
        {
          "name": "",
          "type": "bytes32",
          "internalType": "bytes32"
        }
      ],
      "outputs": [
        {
          "name": "",
          "type": "bool",
          "internalType": "bool"
        }
      ],
      "stateMutability": "view"
    },
    {
      "type": "function",
      "name": "dataFeedExists",
      "inputs": [
        {
          "name": "id",
          "type": "bytes32",
          "internalType": "bytes32"
        }
      ],
      "outputs": [
        {
          "name": "",
          "type": "bool",
          "internalType": "bool"
        }
      ],
      "stateMutability": "view"
    },
    {
      "type": "function",
      "name": "getOptionsNoOlderThan",
      "inputs": [
        {
          "name": "id",
          "type": "bytes32",
          "internalType": "bytes32"
        },
        {
          "name": "age",
          "type": "uint256",
          "internalType": "uint256"
        }
      ],
      "outputs": [
        {
          "name": "data",
          "type": "tuple",
          "internalType": "struct Options",
          "components": [
            {
              "name": "metadata",
              "type": "tuple",
              "internalType": "struct Metadata",
              "components": [
                {
                  "name": "feedId",
                  "type": "bytes32",
                  "internalType": "bytes32"
                },
                {
                  "name": "timestamp",
                  "type": "uint64",
                  "internalType": "uint64"
                },
                {
                  "name": "numberOfSources",
                  "type": "uint16",
                  "internalType": "uint16"
                },
                {
                  "name": "decimals",
                  "type": "uint8",
                  "internalType": "uint8"
                }
              ]
            },
            {
              "name": "strikePrice",
              "type": "uint256",
              "internalType": "uint256"
            },
            {
              "name": "impliedVolatility",
              "type": "uint256",
              "internalType": "uint256"
            },
            {
              "name": "timeToExpiry",
              "type": "uint256",
              "internalType": "uint256"
            },
            {
              "name": "isCall",
              "type": "bool",
              "internalType": "bool"
            },
            {
              "name": "underlyingPrice",
              "type": "uint256",
              "internalType": "uint256"
            },
            {
              "name": "optionPrice",
              "type": "uint256",
              "internalType": "uint256"
            },
            {
              "name": "delta",
              "type": "int256",
              "internalType": "int256"
            },
            {
              "name": "gamma",
              "type": "int256",
              "internalType": "int256"
            },
            {
              "name": "vega",
              "type": "int256",
              "internalType": "int256"
            },
            {
              "name": "theta",
              "type": "int256",
              "internalType": "int256"
            },
            {
              "name": "rho",
              "type": "int256",
              "internalType": "int256"
            }
          ]
        }
      ],
      "stateMutability": "view"
    },
    {
      "type": "function",
      "name": "getPerpNoOlderThan",
      "inputs": [
        {
          "name": "id",
          "type": "bytes32",
          "internalType": "bytes32"
        },
        {
          "name": "age",
          "type": "uint256",
          "internalType": "uint256"
        }
      ],
      "outputs": [
        {
          "name": "data",
          "type": "tuple",
          "internalType": "struct Perp",
          "components": [
            {
              "name": "metadata",
              "type": "tuple",
              "internalType": "struct Metadata",
              "components": [
                {
                  "name": "feedId",
                  "type": "bytes32",
                  "internalType": "bytes32"
                },
                {
                  "name": "timestamp",
                  "type": "uint64",
                  "internalType": "uint64"
                },
                {
                  "name": "numberOfSources",
                  "type": "uint16",
                  "internalType": "uint16"
                },
                {
                  "name": "decimals",
                  "type": "uint8",
                  "internalType": "uint8"
                }
              ]
            },
            {
              "name": "markPrice",
              "type": "uint256",
              "internalType": "uint256"
            },
            {
              "name": "fundingRate",
              "type": "uint256",
              "internalType": "uint256"
            },
            {
              "name": "openInterest",
              "type": "uint256",
              "internalType": "uint256"
            },
            {
              "name": "volume",
              "type": "uint256",
              "internalType": "uint256"
            }
          ]
        }
      ],
      "stateMutability": "view"
    },
    {
      "type": "function",
      "name": "getRealizedVolatilityNoOlderThan",
      "inputs": [
        {
          "name": "id",
          "type": "bytes32",
          "internalType": "bytes32"
        },
        {
          "name": "age",
          "type": "uint256",
          "internalType": "uint256"
        }
      ],
      "outputs": [
        {
          "name": "data",
          "type": "tuple",
          "internalType": "struct RealizedVolatility",
          "components": [
            {
              "name": "metadata",
              "type": "tuple",
              "internalType": "struct Metadata",
              "components": [
                {
                  "name": "feedId",
                  "type": "bytes32",
                  "internalType": "bytes32"
                },
                {
                  "name": "timestamp",
                  "type": "uint64",
                  "internalType": "uint64"
                },
                {
                  "name": "numberOfSources",
                  "type": "uint16",
                  "internalType": "uint16"
                },
                {
                  "name": "decimals",
                  "type": "uint8",
                  "internalType": "uint8"
                }
              ]
            },
            {
              "name": "volatility",
              "type": "uint256",
              "internalType": "uint256"
            },
            {
              "name": "timePeriod",
              "type": "uint256",
              "internalType": "uint256"
            },
            {
              "name": "startPrice",
              "type": "uint256",
              "internalType": "uint256"
            },
            {
              "name": "endPrice",
              "type": "uint256",
              "internalType": "uint256"
            },
            {
              "name": "highPrice",
              "type": "uint256",
              "internalType": "uint256"
            },
            {
              "name": "lowPrice",
              "type": "uint256",
              "internalType": "uint256"
            },
            {
              "name": "numberOfDataPoints",
              "type": "uint256",
              "internalType": "uint256"
            }
          ]
        }
      ],
      "stateMutability": "view"
    },
    {
      "type": "function",
      "name": "getSpotMedianNoOlderThan",
      "inputs": [
        {
          "name": "id",
          "type": "bytes32",
          "internalType": "bytes32"
        },
        {
          "name": "age",
          "type": "uint256",
          "internalType": "uint256"
        }
      ],
      "outputs": [
        {
          "name": "data",
          "type": "tuple",
          "internalType": "struct SpotMedian",
          "components": [
            {
              "name": "metadata",
              "type": "tuple",
              "internalType": "struct Metadata",
              "components": [
                {
                  "name": "feedId",
                  "type": "bytes32",
                  "internalType": "bytes32"
                },
                {
                  "name": "timestamp",
                  "type": "uint64",
                  "internalType": "uint64"
                },
                {
                  "name": "numberOfSources",
                  "type": "uint16",
                  "internalType": "uint16"
                },
                {
                  "name": "decimals",
                  "type": "uint8",
                  "internalType": "uint8"
                }
              ]
            },
            {
              "name": "price",
              "type": "uint256",
              "internalType": "uint256"
            },
            {
              "name": "volume",
              "type": "uint256",
              "internalType": "uint256"
            }
          ]
        }
      ],
      "stateMutability": "view"
    },
    {
      "type": "function",
      "name": "getTwapNoOlderThan",
      "inputs": [
        {
          "name": "id",
          "type": "bytes32",
          "internalType": "bytes32"
        },
        {
          "name": "age",
          "type": "uint256",
          "internalType": "uint256"
        }
      ],
      "outputs": [
        {
          "name": "data",
          "type": "tuple",
          "internalType": "struct TWAP",
          "components": [
            {
              "name": "metadata",
              "type": "tuple",
              "internalType": "struct Metadata",
              "components": [
                {
                  "name": "feedId",
                  "type": "bytes32",
                  "internalType": "bytes32"
                },
                {
                  "name": "timestamp",
                  "type": "uint64",
                  "internalType": "uint64"
                },
                {
                  "name": "numberOfSources",
                  "type": "uint16",
                  "internalType": "uint16"
                },
                {
                  "name": "decimals",
                  "type": "uint8",
                  "internalType": "uint8"
                }
              ]
            },
            {
              "name": "twapPrice",
              "type": "uint256",
              "internalType": "uint256"
            },
            {
              "name": "timePeriod",
              "type": "uint256",
              "internalType": "uint256"
            },
            {
              "name": "startPrice",
              "type": "uint256",
              "internalType": "uint256"
            },
            {
              "name": "endPrice",
              "type": "uint256",
              "internalType": "uint256"
            },
            {
              "name": "totalVolume",
              "type": "uint256",
              "internalType": "uint256"
            },
            {
              "name": "numberOfDataPoints",
              "type": "uint256",
              "internalType": "uint256"
            }
          ]
        }
      ],
      "stateMutability": "view"
    },
    {
      "type": "function",
      "name": "getUpdateFee",
      "inputs": [
        {
          "name": "updateData",
          "type": "bytes[]",
          "internalType": "bytes[]"
        }
      ],
      "outputs": [
        {
          "name": "feeAmount",
          "type": "uint256",
          "internalType": "uint256"
        }
      ],
      "stateMutability": "view"
    },
    {
      "type": "function",
      "name": "getValidTimePeriod",
      "inputs": [],
      "outputs": [
        {
          "name": "",
          "type": "uint256",
          "internalType": "uint256"
        }
      ],
      "stateMutability": "view"
    },
    {
      "type": "function",
      "name": "hyperlane",
      "inputs": [],
      "outputs": [
        {
          "name": "",
          "type": "address",
          "internalType": "contract IHyperlane"
        }
      ],
      "stateMutability": "view"
    },
    {
      "type": "function",
      "name": "initialize",
      "inputs": [
        {
          "name": "_hyperlane",
          "type": "address",
          "internalType": "address"
        },
        {
          "name": "initial_owner",
          "type": "address",
          "internalType": "address"
        },
        {
          "name": "_dataSourceEmitterChainIds",
          "type": "uint16[]",
          "internalType": "uint16[]"
        },
        {
          "name": "_dataSourceEmitterAddresses",
          "type": "bytes32[]",
          "internalType": "bytes32[]"
        },
        {
          "name": "_validTimePeriodSeconds",
          "type": "uint256",
          "internalType": "uint256"
        },
        {
          "name": "_singleUpdateFeeInWei",
          "type": "uint256",
          "internalType": "uint256"
        }
      ],
      "outputs": [],
      "stateMutability": "nonpayable"
    },
    {
      "type": "function",
      "name": "isValidDataSource",
      "inputs": [
        {
          "name": "chainId",
          "type": "uint16",
          "internalType": "uint16"
        },
        {
          "name": "emitterAddress",
          "type": "bytes32",
          "internalType": "bytes32"
        }
      ],
      "outputs": [
        {
          "name": "",
          "type": "bool",
          "internalType": "bool"
        }
      ],
      "stateMutability": "view"
    },
    {
      "type": "function",
      "name": "optionsFeeds",
      "inputs": [
        {
          "name": "",
          "type": "bytes32",
          "internalType": "bytes32"
        }
      ],
      "outputs": [
        {
          "name": "metadata",
          "type": "tuple",
          "internalType": "struct Metadata",
          "components": [
            {
              "name": "feedId",
              "type": "bytes32",
              "internalType": "bytes32"
            },
            {
              "name": "timestamp",
              "type": "uint64",
              "internalType": "uint64"
            },
            {
              "name": "numberOfSources",
              "type": "uint16",
              "internalType": "uint16"
            },
            {
              "name": "decimals",
              "type": "uint8",
              "internalType": "uint8"
            }
          ]
        },
        {
          "name": "strikePrice",
          "type": "uint256",
          "internalType": "uint256"
        },
        {
          "name": "impliedVolatility",
          "type": "uint256",
          "internalType": "uint256"
        },
        {
          "name": "timeToExpiry",
          "type": "uint256",
          "internalType": "uint256"
        },
        {
          "name": "isCall",
          "type": "bool",
          "internalType": "bool"
        },
        {
          "name": "underlyingPrice",
          "type": "uint256",
          "internalType": "uint256"
        },
        {
          "name": "optionPrice",
          "type": "uint256",
          "internalType": "uint256"
        },
        {
          "name": "delta",
          "type": "int256",
          "internalType": "int256"
        },
        {
          "name": "gamma",
          "type": "int256",
          "internalType": "int256"
        },
        {
          "name": "vega",
          "type": "int256",
          "internalType": "int256"
        },
        {
          "name": "theta",
          "type": "int256",
          "internalType": "int256"
        },
        {
          "name": "rho",
          "type": "int256",
          "internalType": "int256"
        }
      ],
      "stateMutability": "view"
    },
    {
      "type": "function",
      "name": "owner",
      "inputs": [],
      "outputs": [
        {
          "name": "",
          "type": "address",
          "internalType": "address"
        }
      ],
      "stateMutability": "view"
    },
    {
      "type": "function",
      "name": "perpFeeds",
      "inputs": [
        {
          "name": "",
          "type": "bytes32",
          "internalType": "bytes32"
        }
      ],
      "outputs": [
        {
          "name": "metadata",
          "type": "tuple",
          "internalType": "struct Metadata",
          "components": [
            {
              "name": "feedId",
              "type": "bytes32",
              "internalType": "bytes32"
            },
            {
              "name": "timestamp",
              "type": "uint64",
              "internalType": "uint64"
            },
            {
              "name": "numberOfSources",
              "type": "uint16",
              "internalType": "uint16"
            },
            {
              "name": "decimals",
              "type": "uint8",
              "internalType": "uint8"
            }
          ]
        },
        {
          "name": "markPrice",
          "type": "uint256",
          "internalType": "uint256"
        },
        {
          "name": "fundingRate",
          "type": "uint256",
          "internalType": "uint256"
        },
        {
          "name": "openInterest",
          "type": "uint256",
          "internalType": "uint256"
        },
        {
          "name": "volume",
          "type": "uint256",
          "internalType": "uint256"
        }
      ],
      "stateMutability": "view"
    },
    {
      "type": "function",
      "name": "proxiableUUID",
      "inputs": [],
      "outputs": [
        {
          "name": "",
          "type": "bytes32",
          "internalType": "bytes32"
        }
      ],
      "stateMutability": "view"
    },
    {
      "type": "function",
      "name": "renounceOwnership",
      "inputs": [],
      "outputs": [],
      "stateMutability": "nonpayable"
    },
    {
      "type": "function",
      "name": "rvFeeds",
      "inputs": [
        {
          "name": "",
          "type": "bytes32",
          "internalType": "bytes32"
        }
      ],
      "outputs": [
        {
          "name": "metadata",
          "type": "tuple",
          "internalType": "struct Metadata",
          "components": [
            {
              "name": "feedId",
              "type": "bytes32",
              "internalType": "bytes32"
            },
            {
              "name": "timestamp",
              "type": "uint64",
              "internalType": "uint64"
            },
            {
              "name": "numberOfSources",
              "type": "uint16",
              "internalType": "uint16"
            },
            {
              "name": "decimals",
              "type": "uint8",
              "internalType": "uint8"
            }
          ]
        },
        {
          "name": "volatility",
          "type": "uint256",
          "internalType": "uint256"
        },
        {
          "name": "timePeriod",
          "type": "uint256",
          "internalType": "uint256"
        },
        {
          "name": "startPrice",
          "type": "uint256",
          "internalType": "uint256"
        },
        {
          "name": "endPrice",
          "type": "uint256",
          "internalType": "uint256"
        },
        {
          "name": "highPrice",
          "type": "uint256",
          "internalType": "uint256"
        },
        {
          "name": "lowPrice",
          "type": "uint256",
          "internalType": "uint256"
        },
        {
          "name": "numberOfDataPoints",
          "type": "uint256",
          "internalType": "uint256"
        }
      ],
      "stateMutability": "view"
    },
    {
      "type": "function",
      "name": "singleUpdateFeeInWei",
      "inputs": [],
      "outputs": [
        {
          "name": "",
          "type": "uint256",
          "internalType": "uint256"
        }
      ],
      "stateMutability": "view"
    },
    {
      "type": "function",
      "name": "spotMedianFeeds",
      "inputs": [
        {
          "name": "",
          "type": "bytes32",
          "internalType": "bytes32"
        }
      ],
      "outputs": [
        {
          "name": "metadata",
          "type": "tuple",
          "internalType": "struct Metadata",
          "components": [
            {
              "name": "feedId",
              "type": "bytes32",
              "internalType": "bytes32"
            },
            {
              "name": "timestamp",
              "type": "uint64",
              "internalType": "uint64"
            },
            {
              "name": "numberOfSources",
              "type": "uint16",
              "internalType": "uint16"
            },
            {
              "name": "decimals",
              "type": "uint8",
              "internalType": "uint8"
            }
          ]
        },
        {
          "name": "price",
          "type": "uint256",
          "internalType": "uint256"
        },
        {
          "name": "volume",
          "type": "uint256",
          "internalType": "uint256"
        }
      ],
      "stateMutability": "view"
    },
    {
      "type": "function",
      "name": "transferOwnership",
      "inputs": [
        {
          "name": "newOwner",
          "type": "address",
          "internalType": "address"
        }
      ],
      "outputs": [],
      "stateMutability": "nonpayable"
    },
    {
      "type": "function",
      "name": "twapFeeds",
      "inputs": [
        {
          "name": "",
          "type": "bytes32",
          "internalType": "bytes32"
        }
      ],
      "outputs": [
        {
          "name": "metadata",
          "type": "tuple",
          "internalType": "struct Metadata",
          "components": [
            {
              "name": "feedId",
              "type": "bytes32",
              "internalType": "bytes32"
            },
            {
              "name": "timestamp",
              "type": "uint64",
              "internalType": "uint64"
            },
            {
              "name": "numberOfSources",
              "type": "uint16",
              "internalType": "uint16"
            },
            {
              "name": "decimals",
              "type": "uint8",
              "internalType": "uint8"
            }
          ]
        },
        {
          "name": "twapPrice",
          "type": "uint256",
          "internalType": "uint256"
        },
        {
          "name": "timePeriod",
          "type": "uint256",
          "internalType": "uint256"
        },
        {
          "name": "startPrice",
          "type": "uint256",
          "internalType": "uint256"
        },
        {
          "name": "endPrice",
          "type": "uint256",
          "internalType": "uint256"
        },
        {
          "name": "totalVolume",
          "type": "uint256",
          "internalType": "uint256"
        },
        {
          "name": "numberOfDataPoints",
          "type": "uint256",
          "internalType": "uint256"
        }
      ],
      "stateMutability": "view"
    },
    {
      "type": "function",
      "name": "updateDataFeeds",
      "inputs": [
        {
          "name": "updateData",
          "type": "bytes[]",
          "internalType": "bytes[]"
        }
      ],
      "outputs": [],
      "stateMutability": "payable"
    },
    {
      "type": "function",
      "name": "upgradeToAndCall",
      "inputs": [
        {
          "name": "newImplementation",
          "type": "address",
          "internalType": "address"
        },
        {
          "name": "data",
          "type": "bytes",
          "internalType": "bytes"
        }
      ],
      "outputs": [],
      "stateMutability": "payable"
    },
    {
      "type": "function",
      "name": "validTimePeriodSeconds",
      "inputs": [],
      "outputs": [
        {
          "name": "",
          "type": "uint256",
          "internalType": "uint256"
        }
      ],
      "stateMutability": "view"
    },
    {
      "type": "function",
      "name": "version",
      "inputs": [],
      "outputs": [
        {
          "name": "",
          "type": "string",
          "internalType": "string"
        }
      ],
      "stateMutability": "pure"
    },
    {
      "type": "function",
      "name": "withdraw_funds",
      "inputs": [
        {
          "name": "amount",
          "type": "uint256",
          "internalType": "uint256"
        }
      ],
      "outputs": [],
      "stateMutability": "nonpayable"
    },
    {
      "type": "event",
      "name": "Initialized",
      "inputs": [
        {
          "name": "version",
          "type": "uint64",
          "indexed": false,
          "internalType": "uint64"
        }
      ],
      "anonymous": false
    },
    {
      "type": "event",
      "name": "OptionsUpdate",
      "inputs": [
        {
          "name": "feedId",
          "type": "bytes32",
          "indexed": true,
          "internalType": "bytes32"
        },
        {
          "name": "publishTime",
          "type": "uint64",
          "indexed": false,
          "internalType": "uint64"
        },
        {
          "name": "options",
          "type": "tuple",
          "indexed": false,
          "internalType": "struct Options",
          "components": [
            {
              "name": "metadata",
              "type": "tuple",
              "internalType": "struct Metadata",
              "components": [
                {
                  "name": "feedId",
                  "type": "bytes32",
                  "internalType": "bytes32"
                },
                {
                  "name": "timestamp",
                  "type": "uint64",
                  "internalType": "uint64"
                },
                {
                  "name": "numberOfSources",
                  "type": "uint16",
                  "internalType": "uint16"
                },
                {
                  "name": "decimals",
                  "type": "uint8",
                  "internalType": "uint8"
                }
              ]
            },
            {
              "name": "strikePrice",
              "type": "uint256",
              "internalType": "uint256"
            },
            {
              "name": "impliedVolatility",
              "type": "uint256",
              "internalType": "uint256"
            },
            {
              "name": "timeToExpiry",
              "type": "uint256",
              "internalType": "uint256"
            },
            {
              "name": "isCall",
              "type": "bool",
              "internalType": "bool"
            },
            {
              "name": "underlyingPrice",
              "type": "uint256",
              "internalType": "uint256"
            },
            {
              "name": "optionPrice",
              "type": "uint256",
              "internalType": "uint256"
            },
            {
              "name": "delta",
              "type": "int256",
              "internalType": "int256"
            },
            {
              "name": "gamma",
              "type": "int256",
              "internalType": "int256"
            },
            {
              "name": "vega",
              "type": "int256",
              "internalType": "int256"
            },
            {
              "name": "theta",
              "type": "int256",
              "internalType": "int256"
            },
            {
              "name": "rho",
              "type": "int256",
              "internalType": "int256"
            }
          ]
        }
      ],
      "anonymous": false
    },
    {
      "type": "event",
      "name": "OwnershipTransferred",
      "inputs": [
        {
          "name": "previousOwner",
          "type": "address",
          "indexed": true,
          "internalType": "address"
        },
        {
          "name": "newOwner",
          "type": "address",
          "indexed": true,
          "internalType": "address"
        }
      ],
      "anonymous": false
    },
    {
      "type": "event",
      "name": "PerpUpdate",
      "inputs": [
        {
          "name": "feedId",
          "type": "bytes32",
          "indexed": true,
          "internalType": "bytes32"
        },
        {
          "name": "publishTime",
          "type": "uint64",
          "indexed": false,
          "internalType": "uint64"
        },
        {
          "name": "perp",
          "type": "tuple",
          "indexed": false,
          "internalType": "struct Perp",
          "components": [
            {
              "name": "metadata",
              "type": "tuple",
              "internalType": "struct Metadata",
              "components": [
                {
                  "name": "feedId",
                  "type": "bytes32",
                  "internalType": "bytes32"
                },
                {
                  "name": "timestamp",
                  "type": "uint64",
                  "internalType": "uint64"
                },
                {
                  "name": "numberOfSources",
                  "type": "uint16",
                  "internalType": "uint16"
                },
                {
                  "name": "decimals",
                  "type": "uint8",
                  "internalType": "uint8"
                }
              ]
            },
            {
              "name": "markPrice",
              "type": "uint256",
              "internalType": "uint256"
            },
            {
              "name": "fundingRate",
              "type": "uint256",
              "internalType": "uint256"
            },
            {
              "name": "openInterest",
              "type": "uint256",
              "internalType": "uint256"
            },
            {
              "name": "volume",
              "type": "uint256",
              "internalType": "uint256"
            }
          ]
        }
      ],
      "anonymous": false
    },
    {
      "type": "event",
      "name": "RealizedVolatilityUpdate",
      "inputs": [
        {
          "name": "feedId",
          "type": "bytes32",
          "indexed": true,
          "internalType": "bytes32"
        },
        {
          "name": "publishTime",
          "type": "uint64",
          "indexed": false,
          "internalType": "uint64"
        },
        {
          "name": "realizedVolatility",
          "type": "tuple",
          "indexed": false,
          "internalType": "struct RealizedVolatility",
          "components": [
            {
              "name": "metadata",
              "type": "tuple",
              "internalType": "struct Metadata",
              "components": [
                {
                  "name": "feedId",
                  "type": "bytes32",
                  "internalType": "bytes32"
                },
                {
                  "name": "timestamp",
                  "type": "uint64",
                  "internalType": "uint64"
                },
                {
                  "name": "numberOfSources",
                  "type": "uint16",
                  "internalType": "uint16"
                },
                {
                  "name": "decimals",
                  "type": "uint8",
                  "internalType": "uint8"
                }
              ]
            },
            {
              "name": "volatility",
              "type": "uint256",
              "internalType": "uint256"
            },
            {
              "name": "timePeriod",
              "type": "uint256",
              "internalType": "uint256"
            },
            {
              "name": "startPrice",
              "type": "uint256",
              "internalType": "uint256"
            },
            {
              "name": "endPrice",
              "type": "uint256",
              "internalType": "uint256"
            },
            {
              "name": "highPrice",
              "type": "uint256",
              "internalType": "uint256"
            },
            {
              "name": "lowPrice",
              "type": "uint256",
              "internalType": "uint256"
            },
            {
              "name": "numberOfDataPoints",
              "type": "uint256",
              "internalType": "uint256"
            }
          ]
        }
      ],
      "anonymous": false
    },
    {
      "type": "event",
      "name": "SpotMedianUpdate",
      "inputs": [
        {
          "name": "feedId",
          "type": "bytes32",
          "indexed": true,
          "internalType": "bytes32"
        },
        {
          "name": "publishTime",
          "type": "uint64",
          "indexed": false,
          "internalType": "uint64"
        },
        {
          "name": "spotMedian",
          "type": "tuple",
          "indexed": false,
          "internalType": "struct SpotMedian",
          "components": [
            {
              "name": "metadata",
              "type": "tuple",
              "internalType": "struct Metadata",
              "components": [
                {
                  "name": "feedId",
                  "type": "bytes32",
                  "internalType": "bytes32"
                },
                {
                  "name": "timestamp",
                  "type": "uint64",
                  "internalType": "uint64"
                },
                {
                  "name": "numberOfSources",
                  "type": "uint16",
                  "internalType": "uint16"
                },
                {
                  "name": "decimals",
                  "type": "uint8",
                  "internalType": "uint8"
                }
              ]
            },
            {
              "name": "price",
              "type": "uint256",
              "internalType": "uint256"
            },
            {
              "name": "volume",
              "type": "uint256",
              "internalType": "uint256"
            }
          ]
        }
      ],
      "anonymous": false
    },
    {
      "type": "event",
      "name": "TWAPUpdate",
      "inputs": [
        {
          "name": "feedId",
          "type": "bytes32",
          "indexed": true,
          "internalType": "bytes32"
        },
        {
          "name": "publishTime",
          "type": "uint64",
          "indexed": false,
          "internalType": "uint64"
        },
        {
          "name": "twap",
          "type": "tuple",
          "indexed": false,
          "internalType": "struct TWAP",
          "components": [
            {
              "name": "metadata",
              "type": "tuple",
              "internalType": "struct Metadata",
              "components": [
                {
                  "name": "feedId",
                  "type": "bytes32",
                  "internalType": "bytes32"
                },
                {
                  "name": "timestamp",
                  "type": "uint64",
                  "internalType": "uint64"
                },
                {
                  "name": "numberOfSources",
                  "type": "uint16",
                  "internalType": "uint16"
                },
                {
                  "name": "decimals",
                  "type": "uint8",
                  "internalType": "uint8"
                }
              ]
            },
            {
              "name": "twapPrice",
              "type": "uint256",
              "internalType": "uint256"
            },
            {
              "name": "timePeriod",
              "type": "uint256",
              "internalType": "uint256"
            },
            {
              "name": "startPrice",
              "type": "uint256",
              "internalType": "uint256"
            },
            {
              "name": "endPrice",
              "type": "uint256",
              "internalType": "uint256"
            },
            {
              "name": "totalVolume",
              "type": "uint256",
              "internalType": "uint256"
            },
            {
              "name": "numberOfDataPoints",
              "type": "uint256",
              "internalType": "uint256"
            }
          ]
        }
      ],
      "anonymous": false
    },
    {
      "type": "event",
      "name": "Upgraded",
      "inputs": [
        {
          "name": "implementation",
          "type": "address",
          "indexed": true,
          "internalType": "address"
        }
      ],
      "anonymous": false
    },
    {
      "type": "error",
      "name": "AddressEmptyCode",
      "inputs": [
        {
          "name": "target",
          "type": "address",
          "internalType": "address"
        }
      ]
    },
    {
      "type": "error",
      "name": "DataNotFound",
      "inputs": []
    },
    {
      "type": "error",
      "name": "DataStale",
      "inputs": []
    },
    {
      "type": "error",
      "name": "ERC1967InvalidImplementation",
      "inputs": [
        {
          "name": "implementation",
          "type": "address",
          "internalType": "address"
        }
      ]
    },
    {
      "type": "error",
      "name": "ERC1967NonPayable",
      "inputs": []
    },
    {
      "type": "error",
      "name": "FailedCall",
      "inputs": []
    },
    {
      "type": "error",
      "name": "InsufficientFee",
      "inputs": []
    },
    {
      "type": "error",
      "name": "InvalidDataFeedType",
      "inputs": []
    },
    {
      "type": "error",
      "name": "InvalidHyperlaneCheckpointRoot",
      "inputs": []
    },
    {
      "type": "error",
      "name": "InvalidInitialization",
      "inputs": []
    },
    {
      "type": "error",
      "name": "InvalidUpdateData",
      "inputs": []
    },
    {
      "type": "error",
      "name": "InvalidUpdateDataSource",
      "inputs": []
    },
    {
      "type": "error",
      "name": "InvalidVersion",
      "inputs": []
    },
    {
      "type": "error",
      "name": "NotInitializing",
      "inputs": []
    },
    {
      "type": "error",
      "name": "OwnableInvalidOwner",
      "inputs": [
        {
          "name": "owner",
          "type": "address",
          "internalType": "address"
        }
      ]
    },
    {
      "type": "error",
      "name": "OwnableUnauthorizedAccount",
      "inputs": [
        {
          "name": "account",
          "type": "address",
          "internalType": "address"
        }
      ]
    },
    {
      "type": "error",
      "name": "UUPSUnauthorizedCallContext",
      "inputs": []
    },
    {
      "type": "error",
      "name": "UUPSUnsupportedProxiableUUID",
      "inputs": [
        {
          "name": "slot",
          "type": "bytes32",
          "internalType": "bytes32"
        }
      ]
    }
  ],
  "bytecode": {
    "object": "0x60a080604052346100e857306080527ff0c57e16840df040f15088dc2f81fe391c3923bec73e23a9662efc9c229c6a005460ff8160401c166100d9576002600160401b03196001600160401b03821601610073575b60405161327c90816100ed82396080518181816107e4015261090e0152f35b6001600160401b0319166001600160401b039081177ff0c57e16840df040f15088dc2f81fe391c3923bec73e23a9662efc9c229c6a005581527fc7f505b2f371ae2175ee4913f4499e1f2633a7b5936321eed1cdaeb6115181d290602090a15f80610054565b63f92ee8a960e01b5f5260045ffd5b5f80fdfe60806040526004361015610011575f80fd5b5f3560e01c8063043cc783146101cf5780630e8fd1ba146101ca5780630f01cb51146101c557806332bb41d3146101c05780633a612c32146101bb578063437209a7146101b657806348b6404d146101b157806349c398a4146101ac5780634f1ef286146101a757806352d1902d146101a257806354fd4d501461019d5780635d2c53a7146101985780636306642214610193578063715018a61461018e5780637cfa33dd146101895780638da5cb5b14610184578063ad3cb1cc1461017f578063bdf6afa41461017a578063c12fd47314610175578063c6ac557c14610170578063cb718a9b14610157578063cf8e17bb1461016b578063d47eed4514610166578063d58a8f6d14610161578063d5d89eaf1461015c578063e18910a314610157578063e29ea30f146101525763f2fde38b1461014d575f80fd5b6113b3565b61129e565b610f01565b611132565b611029565b61100f565b610f5f565b610e9c565b610e25565b610cee565b610c49565b610c15565b610b57565b610aab565b610a84565b6109bc565b61097d565b6108fc565b610795565b610646565b6105ce565b6105a3565b61051b565b61043d565b6103dd565b6103b5565b610362565b634e487b7160e01b5f52604160045260245ffd5b608081019081106001600160401b0382111761020357604052565b6101d4565b606081019081106001600160401b0382111761020357604052565b60e081019081106001600160401b0382111761020357604052565b60a081019081106001600160401b0382111761020357604052565b61010081019081106001600160401b0382111761020357604052565b61018081019081106001600160401b0382111761020357604052565b60c081019081106001600160401b0382111761020357604052565b90601f801991011681019081106001600160401b0382111761020357604052565b604051906102dd610100836102ac565b565b604051906102dd610180836102ac565b906040516102fc816101e8565b606060ff600183958054855201546001600160401b038116602085015261ffff8160401c16604085015260501c16910152565b60ff60608092805185526001600160401b03602082015116602086015261ffff6040820151166040860152015116910152565b346103b15760203660031901126103b1576004355f52600260205260c060405f2061038c816102ef565b9060036002820154910154906103a5604051809461032f565b608083015260a0820152f35b5f80fd5b346103b15760203660031901126103b15760206103d36004356113fa565b6040519015158152f35b346103b15760203660031901126103b1576004355f526001602052602060ff60405f2054166040519015158152f35b604060a09161041c84825161032f565b602081015160808501520151910152565b60c0810192916102dd919061040c565b346103b15760403660031901126103b15760243560043561045c61153c565b505f52600260205260405f20906001600160401b036104b060206040519461048386610208565b600361048e826102ef565b918288526002810154848901520154604087015201516001600160401b031690565b161561050c576104e46104de6104d260208551016001600160401b0390511690565b6001600160401b031690565b42611a42565b116104fd576104f9906040519182918261042d565b0390f35b630ee5338360e21b5f5260045ffd5b635a26d5fd60e11b5f5260045ffd5b346103b15760203660031901126103b1576004355f52600360205261014060405f20610546816102ef565b90600281015490600381015460048201546005830154916007600685015494015494610575604051809861032f565b608087015260a086015260c085015260e0840152610100830152610120820152f35b61ffff8116036103b157565b346103b15760403660031901126103b15760206103d36004356105c581610597565b60243590611561565b346103b1575f3660031901126103b1576020600854604051908152f35b60c0610120916105fc84825161032f565b60208101516080850152604081015160a0850152606081015182850152608081015160e085015260a08101516101008501520151910152565b610140810192916102dd91906105eb565b346103b15760403660031901126103b1576024356004356106656115af565b505f52600360205260405f20906001600160401b036106e160206040519461068c86610223565b6007610697826102ef565b91828852600281015484890152600381015460408901526004810154606089015260058101546080890152600681015460a0890152015460c087015201516001600160401b031690565b161561050c576107036104de6104d260208551016001600160401b0390511690565b116104fd576104f99060405191829182610635565b600435906001600160a01b03821682036103b157565b602435906001600160a01b03821682036103b157565b6001600160401b03811161020357601f01601f191660200190565b92919261076b82610744565b9161077960405193846102ac565b8294818452818301116103b1578281602093845f960137010152565b60403660031901126103b1576107a9610718565b6024356001600160401b0381116103b157366023820112156103b1576107d990369060248160040135910161075f565b906001600160a01b037f0000000000000000000000000000000000000000000000000000000000000000163081149081156108da575b506108cb5761081c611a7e565b6040516352d1902d60e01b8152916020836004816001600160a01b0386165afa5f938161089a575b5061086557634c9c8ce360e01b5f526001600160a01b03821660045260245ffd5b905f805160206132078339815191528303610886576108849250611bac565b005b632a87526960e21b5f52600483905260245ffd5b6108bd91945060203d6020116108c4575b6108b581836102ac565b810190611a64565b925f610844565b503d6108ab565b63703e46dd60e11b5f5260045ffd5b5f80516020613207833981519152546001600160a01b0316141590505f61080f565b346103b1575f3660031901126103b1577f00000000000000000000000000000000000000000000000000000000000000006001600160a01b031630036108cb5760206040515f805160206132078339815191528152f35b602060409281835280519182918282860152018484015e5f828201840152601f01601f1916010190565b346103b1575f3660031901126103b1576104f960405161099e6040826102ac565b60058152640312e302e360dc1b602082015260405191829182610953565b346103b15760203660031901126103b1576004356109d8611a7e565b478111610a48575f805160206131e7833981519152545f918291829182916001600160a01b03165af1610a096115ec565b5015610a1157005b60405162461bcd60e51b815260206004820152600f60248201526e151c985b9cd9995c8819985a5b1959608a1b6044820152606490fd5b60405162461bcd60e51b8152602060048201526014602482015273496e73756666696369656e742062616c616e636560601b6044820152606490fd5b346103b1575f3660031901126103b1575f546040516001600160a01b039091168152602090f35b346103b1575f3660031901126103b157610ac3611a7e565b5f805160206131e783398151915280546001600160a01b031981169091555f906001600160a01b03167f8be0079c531659141344cd1fd0a4f28419497f9722a3daafe3b4186f6b6457e08280a3005b608060e091610b2284825161032f565b602081015182850152604081015160a0850152606081015160c08501520151910152565b610100810192916102dd9190610b12565b346103b15760403660031901126103b157602435600435610b7661161b565b505f52600660205260405f20906001600160401b03610bde602060405194610b9d8661023e565b6005610ba8826102ef565b9182885260028101548489015260038101546040890152600481015460608901520154608087015201516001600160401b031690565b161561050c57610c006104de6104d260208551016001600160401b0390511690565b116104fd576104f99060405191829182610b46565b346103b1575f3660031901126103b1575f805160206131e7833981519152546040516001600160a01b039091168152602090f35b346103b1575f3660031901126103b1576104f9604051610c6a6040826102ac565b60058152640352e302e360dc1b602082015260405191829182610953565b60e061014091610c9984825161032f565b60208101516080850152604081015160a0850152606081015160c085015260808101518285015260a081015161010085015260c08101516101208501520151910152565b610160810192916102dd9190610c88565b346103b15760403660031901126103b157602435600435610d0d61164c565b505f52600460205260405f20906001600160401b03610d8f6020610d2f6102cd565b946008610d3b826102ef565b91828852600281015484890152600381015460408901526004810154606089015260058101546080890152600681015460a0890152600781015460c0890152015460e087015201516001600160401b031690565b161561050c57610db16104de6104d260208551016001600160401b0390511690565b116104fd576104f99060405191829182610cdd565b9c9b9a9896949290918d9a989694926101e08c019e610de49161032f565b60808b015260a08a015260c0890152151560e08801526101008701526101208601526101408501526101608401526101808301526101a08201526101c00152565b346103b15760203660031901126103b1576004355f52600560205260405f20610e4d816102ef565b6104f9600283015492600381015490600481015460ff60058301541660068301546007840154600885015491600986015493600a87015495600c600b890154980154986040519c8d9c8d610dc6565b346103b15760203660031901126103b1576004355f52600660205261010060405f20610ec7816102ef565b9060028101549060038101546005600483015492015492610eeb604051809661032f565b608085015260a084015260c083015260e0820152f35b346103b1575f3660031901126103b1576020600754604051908152f35b9491926101409693999897949199610f3b8761016081019c61032f565b608087015260a086015260c085015260e08401526101008301526101208201520152565b346103b15760203660031901126103b1576004355f52600460205260405f20610f87816102ef565b6104f960028301549260038101549060048101546005820154600683015491600860078501549401549460405198899889610f1e565b9060206003198301126103b1576004356001600160401b0381116103b157826023820112156103b1578060040135926001600160401b0384116103b15760248460051b830101116103b1576024019190565b346103b15761101d36610fbd565b505060206040515f8152f35b61103236610fbd565b5f8092601e1981360301915b8385101561109c578460051b820135838112156103b1578201908135916001600160401b0383116103b1576020019082360382136103b15761108e61108860019461109494611b05565b60ff1690565b906116e0565b94019361103e565b6008546110a891611b99565b34106110b057005b62976f7560e21b5f5260045ffd5b6001600160401b0381116102035760051b60200190565b9080601f830112156103b15781356110ec816110be565b926110fa60405194856102ac565b81845260208085019260051b8201019283116103b157602001905b8282106111225750505090565b8135815260209182019101611115565b346103b15760c03660031901126103b15761114b610718565b61115361072e565b90604435916001600160401b0383116103b157366023840112156103b157826004013592611180846110be565b9361118e60405195866102ac565b8085526024602086019160051b830101913683116103b157602401905b8282106111e657505050606435926001600160401b0384116103b1576111d86108849436906004016110d5565b906084359260a435946116ed565b6020809183356111f581610597565b8152019101906111ab565b6101606101c09161121284825161032f565b60208101516080850152604081015160a0850152606081015160c0850152611243608082015160e086019015159052565b60a081015161010085015260c081015161012085015260e0810151610140850152610100810151828501526101208101516101808501526101408101516101a08501520151910152565b6101e0810192916102dd9190611200565b346103b15760403660031901126103b1576024356004356112bd61194c565b505f52600560205260405f2090600c6112d46102df565b926112de816102ef565b845260028101546020850152600381015460408501526004810154606085015261131861130f600583015460ff1690565b15156080860152565b600681015460a0850152600781015460c0850152600881015460e08501526009810154610100850152600a810154610120850152600b81015461014085015201546101608301526001600160401b0361137c6020845101516001600160401b031690565b161561050c5761139e6104de6104d260208551016001600160401b0390511690565b116104fd576104f9906040519182918261128d565b346103b15760203660031901126103b1576108846113cf610718565b6113d7611a7e565b6119ab565b600511156113e657565b634e487b7160e01b5f52602160045260245ffd5b611405815f1a611a1c565b61140e816113dc565b80611447575061144160016114336001600160401b03935f52600260205260405f2090565b01546001600160401b031690565b16151590565b611450816113dc565b60018103611478575061144160016114336001600160401b03935f52600360205260405f2090565b611481816113dc565b600281036114a9575061144160016114336001600160401b03935f52600460205260405f2090565b6114b2816113dc565b600381036114da575061144160016114336001600160401b03935f52600560205260405f2090565b806114e66004926113dc565b0361150a5761144160016114336001600160401b03935f52600660205260405f2090565b62c5984360e11b5f5260045ffd5b60405190611525826101e8565b5f6060838281528260208201528260408201520152565b6040519061154982610208565b5f604083611555611518565b81528260208201520152565b60405160f09190911b6001600160f01b03191660208201908152602282019290925261159a81604281015b03601f1981018352826102ac565b5190205f52600160205260ff60405f20541690565b604051906115bc82610223565b5f60c0836115c8611518565b81528260208201528260408201528260608201528260808201528260a08201520152565b3d15611616573d906115fd82610744565b9161160b60405193846102ac565b82523d5f602084013e565b606090565b604051906116288261023e565b5f608083611634611518565b81528260208201528260408201528260608201520152565b6040519061165982610259565b5f60e083611665611518565b81528260208201528260408201528260608201528260808201528260a08201528260c08201520152565b634e487b7160e01b5f52601160045260245ffd5b90602082018092116116b157565b61168f565b90600182018092116116b157565b90600882018092116116b157565b90600282018092116116b157565b919082018092116116b157565b9391949290945f8051602061322783398151915254956001600160401b0361172b61171e60ff8a60401c1615151590565b986001600160401b031690565b1680159081611845575b600114908161183b575b159081611832575b506118235761178a958761178160016001600160401b03195f805160206132278339815191525416175f8051602061322783398151915255565b6117e957611875565b61179057565b6117ba60ff60401b195f8051602061322783398151915254165f8051602061322783398151915255565b604051600181527fc7f505b2f371ae2175ee4913f4499e1f2633a7b5936321eed1cdaeb6115181d290602090a1565b61181e6801000000000000000060ff60401b195f805160206132278339815191525416175f8051602061322783398151915255565b611875565b63f92ee8a960e01b5f5260045ffd5b9050155f611747565b303b15915061173f565b889150611735565b80518210156118615760209160051b010190565b634e487b7160e01b5f52603260045260245ffd5b90611891909693969592949561188961256a565b6113d761256a565b61189961256a565b60018060a01b03166bffffffffffffffffffffffff60a01b5f5416175f555f5b8351811015611936578061193061192361ffff6118d86001958961184d565b511661158c6119126118ea868d61184d565b51604051928391602083019586909160229261ffff60f01b9060f01b16825260028201520190565b5190205f52600160205260405f2090565b805460ff19166001179055565b016118b9565b50915092506119476102dd92600755565b600855565b6040519061195982610275565b5f61016083611966611518565b81528260208201528260408201528260608201528260808201528260a08201528260c08201528260e08201528261010082015282610120820152826101408201520152565b6001600160a01b03168015611a09575f805160206131e783398151915280546001600160a01b0319811683179091556001600160a01b03167f8be0079c531659141344cd1fd0a4f28419497f9722a3daafe3b4186f6b6457e05f80a3565b631e4fbdf760e01b5f525f60045260245ffd5b60ff166004811161150a5760058110156113e65790565b6027198101919082116116b157565b9080821115611a575781039081116116b15790565b9081039081116116b15790565b908160209103126103b1575190565b6040513d5f823e3d90fd5b5f805160206131e7833981519152546001600160a01b03163303611a9e57565b63118cdaa760e01b5f523360045260245ffd5b60405190611abe82610291565b815f8152611aca61153c565b6020820152611ad76115af565b6040820152611ae461164c565b6060820152611af161194c565b608082015260a0611b0061161b565b910152565b906001823560f81c03611b8a576003600283013560f81c0190818110611b4c57611b2e92611c4e565b928291929594925f5b60ff84168110611b5b575050505003611b4c57565b63734fff6760e11b5f5260045ffd5b600160ff91611b7885611b8298611b70611ab1565b508a87611d54565b9190999299612260565b019050611b37565b63a9146eeb60e01b5f5260045ffd5b818102929181159184041417156116b157565b90813b15611c2d575f8051602061320783398151915280546001600160a01b0319166001600160a01b0384169081179091557fbc7cd75a20ee27fd9adebab32041f755214dbc6bffa90cc0225b39da2e5c2d3b5f80a2805115611c1557611c1291612595565b50565b505034611c1e57565b63b398979f60e01b5f5260045ffd5b50634c9c8ce360e01b5f9081526001600160a01b0391909116600452602490fd5b611ca392611c5f92818103926125ed565b92905f611c71823560f01c86846125b5565b90611c7a612607565b5082546001600160a01b031690604051809781948293631286d10d60e21b845260048401612876565b03915afa928315611d4f575f905f905f95611d24575b5015611d1557611ce3611cdf611cd4606084015161ffff1690565b608084015190611561565b1590565b611d065760a0015192600201936020840151938051602011611b4c576021015192565b63e60dce7160e01b5f5260045ffd5b63a1a2d59960e01b5f5260045ffd5b915050611d449193503d805f833e611d3c81836102ac565b810190612777565b94929050905f611cb9565b611a73565b82611d6e92949394611d64611ab1565b50818103926125ed565b6021829392013560f01c91602384013560f01c90611dbe611db4611d938486896125d1565b509684602501611da5888289856125ed565b979096810360241901926125ed565b939094369161075f565b604051611df06021826020808201955f87528051918291018484015e81015f838201520301601f1981018352826102ac565b519020853560f01c956002965f915b818310611e2a5750505003611d1557611e1c60259160289361289d565b959195949095960101010193565b90919297611e48816020611e4060019486013590565b91019a612a35565b93019190611dff565b600190825181550190611e876001600160401b0360208301511683906001600160401b03166001600160401b0319825416179055565b60408101519061ffff60401b835491606060ff60501b91015160501b169260401b169062ffffff60401b191617179055565b9060806005918051805185556001850190611ef76001600160401b0360208301511683906001600160401b03166001600160401b0319825416179055565b60408101519061ffff60401b835491606060ff60501b91015160501b169260401b169062ffffff60401b1916171790556020810151600285015560408101516003850155606081015160048501550151910155565b9160206102dd9294936001600160401b036101208201961681520190610b12565b90610160600c91611f7f815185611e51565b602081015160028501556040810151600385015560608101516004850155611fc2611fad6080830151151590565b600586019060ff801983541691151516179055565b60a0810151600685015560c0810151600785015560e081015160088501556101008101516009850155610120810151600a850155610140810151600b8501550151910155565b9160206102dd9294936001600160401b036102008201961681520190611200565b9060e060089180518051855560018501906120676001600160401b0360208301511683906001600160401b03166001600160401b0319825416179055565b60408101519061ffff60401b835491606060ff60501b91015160501b169260401b169062ffffff60401b1916171790556020810151600285015560408101516003850155606081015160048501556080810151600585015560a0810151600685015560c081015160078501550151910155565b9160206102dd9294936001600160401b036101808201961681520190610c88565b9060c060079180518051855560018501906121396001600160401b0360208301511683906001600160401b03166001600160401b0319825416179055565b60408101519061ffff60401b835491606060ff60501b91015160501b169260401b169062ffffff60401b1916171790556020810151600285015560408101516003850155606081015160048501556080810151600585015560a081015160068501550151910155565b9160206102dd9294936001600160401b0361016082019616815201906105eb565b90604060039180518051855560018501906122016001600160401b0360208301511683906001600160401b03166001600160401b0319825416179055565b838101519061ffff60401b835491606060ff60501b91015160501b1692861b169062ffffff60401b191617179055602081015160028501550151910155565b9160206102dd9294936001600160401b0360e0820196168152019061040c565b91815161226c816113dc565b612275816113dc565b6122fe576122936104d26001611433865f52600260205260405f2090565b6001600160401b038216116122a757505050565b60207ffb12ae848c5dadd8d78a67a33e6edd5c9de9217de2735553c5451a6f6c6fceb792016122e881516122e3865f52600260205260405f2090565b6121c3565b51906122f960405192839283612240565b0390a2565b6001825161230b816113dc565b612314816113dc565b03612399576123336104d26001611433865f52600360205260405f2090565b6001600160401b0382161161234757505050565b60407f7191ffe59869d1cf17cb7c2726e2bd60a37024a55d653026782e80eca977b1df92016123888151612383865f52600360205260405f2090565b6120fb565b51906122f9604051928392836121a2565b600282516123a6816113dc565b6123af816113dc565b03612434576123ce6104d26001611433865f52600460205260405f2090565b6001600160401b038216116123e257505050565b60607f98bf4c5718257f52861df389c8da98969915aac10244557e2fbebe31c25774949201612423815161241e865f52600460205260405f2090565b612029565b51906122f9604051928392836120da565b60038251612441816113dc565b61244a816113dc565b036124cf576124696104d26001611433865f52600560205260405f2090565b6001600160401b0382161161247d57505050565b60807f66e9beacbf647c3bc61691e3291107d4a62979d7845cb7527ca0dcd478e8134f92016124be81516124b9865f52600560205260405f2090565b611f6d565b51906122f960405192839283612008565b600482516124dc816113dc565b6124e5816113dc565b0361150a576125046104d26001611433865f52600660205260405f2090565b6001600160401b0382161161251857505050565b60a07f21654bf502bb4f1c5de999bef2220202e8be7e7bb8febc1307d54f0d840fbb0492016125598151612554865f52600660205260405f2090565b611eb9565b51906122f960405192839283611f4c565b60ff5f805160206132278339815191525460401c161561258657565b631afcd79f60e31b5f5260045ffd5b5f806125b293602081519101845af46125ac6115ec565b916129cb565b90565b9092919283600201806002116116b157116103b1576002019190565b9092919283602501806025116116b157116103b1576025019190565b9093928201938483116116b15784116103b1578101920390565b6040519061261482610259565b5f60e083828152826020820152826040820152826060820152826080820152606060a0820152606060c08201520152565b519060ff821682036103b157565b51906001600160401b03821682036103b157565b519063ffffffff821682036103b157565b51906102dd82610597565b81601f820112156103b15760208151910161269d82610744565b926126ab60405194856102ac565b828452828201116103b157815f926020928386015e8301015290565b81601f820112156103b1578051906126de826110be565b926126ec60405194856102ac565b82845260208085019360071b830101918183116103b157602001925b828410612716575050505090565b6080848303126103b1576020608091604051612731816101e8565b86518152828701518382015261274960408801612645565b604082015261275a60608801612645565b6060820152815201930192612708565b519081151582036103b157565b6080818303126103b15780516001600160401b0381116103b1578101610100818403126103b1576127a66102cd565b906127b081612645565b82526127be60208201612653565b60208301526127cf60408201612667565b60408301526127e060608201612678565b60608301526080810151608083015260a08101516001600160401b0381116103b1578461280e918301612683565b60a083015260c0810151906001600160401b0382116103b1576128358560e09383016126c7565b60c0840152015160e08201529261284e6020830161276a565b9260408301516001600160401b0381116103b157606091612870918501612683565b92015190565b90918060409360208452816020850152848401375f828201840152601f01601f1916010190565b90916128a7611ab1565b506128b336848461075f565b6128bb611ab1565b506128cd6128c882612a73565b611a1c565b6128d5612ada565b906128e08183612a29565b6128e9816113dc565b8061292c57506128fb6125b292612e44565b60208201525b9361292461290e82611a33565b9461291c81870135966116a3565b92369161075f565b016008015190565b612935816113dc565b60018103612954575061294a6125b292612d9d565b6040820152612901565b61295d816113dc565b6002810361297c57506129726125b292612cdc565b6060820152612901565b612985816113dc565b600381036129a4575061299a6125b292612bb6565b6080820152612901565b806129b06004926113dc565b0361150a576129c16125b292612b39565b60a0820152612901565b906129ef57508051156129e057805190602001fd5b63d6bda27560e01b5f5260045ffd5b81511580612a20575b612a00575090565b639996b31560e01b5f9081526001600160a01b0391909116600452602490fd5b50803b156129f8565b60058210156113e65752565b90808211612a6d575b604051906020820192600160f81b84526021830152604182015260418152612a676061826102ac565b51902090565b90612a3e565b6003815110612a83576003015190565b60405162461bcd60e51b8152602060048201526013602482015272746f55696e74385f6f75744f66426f756e647360681b6044820152606490fd5b90815160018201908183116116b15710612a8357016001015190565b612ae2611ab1565b50612aeb612e8d565b612af3612ebc565b612afb612f03565b612b03612f50565b90612b0c612fb9565b9260405194612b1a86610291565b5f8652602086015260408501526060840152608083015260a082015290565b612b4161161b565b50612b4a612fb9565b90612b5481612ff4565b908352612b6181836130b0565b602084015260208101908181116116b157612b7c82846130b0565b6040850152604081018092116116b157606090612b9983856130b0565b82860152018091116116b157612bae916130b0565b608082015290565b612bbe61194c565b50612cd3612bca612f50565b91612ccd612cb8612ca3612c8e612c7a612c66612c52612c33612c1f898c6040612c17612c10612bf985612ff4565b908552612c0681876130b0565b60208601526116a3565b80946130b0565b9101526116a3565b612c29818b6130b0565b60608d01526116a3565b612c4d600160ff612c44848d612abe565b161460808d0152565b6116b6565b612c5c81896130b0565b60a08b01526116a3565b612c7081886130b0565b60c08a01526116a3565b612c848187613109565b60e08901526116a3565b612c988186613109565b6101008801526116a3565b612cad8185613109565b6101208701526116a3565b612cc28184613109565b6101408601526116a3565b90613109565b61016082015290565b612ce461164c565b50612ced612f03565b90612cf781612ff4565b91908352612d0582826130b0565b602084015260208201918281116116b157604090612d2384846130b0565b82860152018092116116b157612d8f612d7b612d67612d5385612d49612d9597876130b0565b60608901526116a3565b612d5d81866130b0565b60808801526116a3565b612d7181856130b0565b60a08701526116a3565b612d8581846130b0565b60c08601526116a3565b906130b0565b60e082015290565b612da56115af565b50612dae612ebc565b90612db881612ff4565b91908352612dc682826130b0565b602084015260208201918281116116b157612de183836130b0565b6040850152604081018093116116b157606090612dfe84846130b0565b82860152018092116116b157612d8f612e2883612e1e612e3c95856130b0565b60808701526116a3565b612e3281846130b0565b60a08601526116a3565b60c082015290565b612e4c61153c565b50612e55612e8d565b90612e5f81612ff4565b908352612e6c81836130b0565b6020840152602081018091116116b157612e85916130b0565b604082015290565b612e9561153c565b50612e9e613161565b60405190612eab82610208565b81525f60208201525f604082015290565b612ec46115af565b50612ecd613161565b60405190612eda82610223565b81525f60208201525f60408201525f60608201525f60808201525f60a08201525f60c082015290565b612f0b61164c565b50612f14613161565b60405190612f2182610259565b81525f60208201525f60408201525f60608201525f60808201525f60a08201525f60c08201525f60e082015290565b612f5861194c565b50612f61613161565b60405190612f6e82610275565b81525f60208201525f60408201525f60608201525f60808201525f60a08201525f60c08201525f60e08201525f6101008201525f6101208201525f6101408201525f61016082015290565b612fc161161b565b50612fca613161565b60405190612fd78261023e565b81525f60208201525f60408201525f60608201525f608082015290565b90612ffd611518565b50613006613161565b916130115f826130b0565b835260288151106130745760288101516001600160401b031660208401526125b290612c4d61306a61306361304660206116c4565b61305e613053828761318e565b61ffff1660408a0152565b6116d2565b8093612abe565b60ff166060860152565b60405162461bcd60e51b8152602060048201526014602482015273746f55696e7436345f6f75744f66426f756e647360601b6044820152606490fd5b90815160208201908183116116b157106130cc57016020015190565b60405162461bcd60e51b8152602060048201526015602482015274746f55696e743235365f6f75744f66426f756e647360581b6044820152606490fd5b90815160208201908183116116b1571061312557016020015190565b60405162461bcd60e51b8152602060048201526014602482015273746f496e743235365f6f75744f66426f756e647360601b6044820152606490fd5b613169611518565b50604051613176816101e8565b5f81525f60208201525f60408201525f606082015290565b90815160028201908183116116b157106131aa57016002015190565b60405162461bcd60e51b8152602060048201526014602482015273746f55696e7431365f6f75744f66426f756e647360601b6044820152606490fdfe9016d09d72d40fdae2fd8ceac6b6234c7706214fd39c1cd1e609a0528c199300360894a13ba1a3210667c828492db98dca3e2076cc3735a920a3ca505d382bbcf0c57e16840df040f15088dc2f81fe391c3923bec73e23a9662efc9c229c6a00a26469706673582212204a3711fca3c5856cb6d435990f15e65da5266746cdfbd7d5feb5154b5398db1c64736f6c634300081a0033",
    "linkReferences": {}
  },
  "methodIdentifiers": {
    "UPGRADE_INTERFACE_VERSION()": "ad3cb1cc",
    "_isValidDataSource(bytes32)": "0f01cb51",
    "dataFeedExists(bytes32)": "0e8fd1ba",
    "getOptionsNoOlderThan(bytes32,uint256)": "e29ea30f",
    "getPerpNoOlderThan(bytes32,uint256)": "7cfa33dd",
    "getRealizedVolatilityNoOlderThan(bytes32,uint256)": "bdf6afa4",
    "getSpotMedianNoOlderThan(bytes32,uint256)": "32bb41d3",
    "getTwapNoOlderThan(bytes32,uint256)": "49c398a4",
    "getUpdateFee(bytes[])": "d47eed45",
    "getValidTimePeriod()": "e18910a3",
    "hyperlane()": "63066422",
    "initialize(address,address,uint16[],bytes32[],uint256,uint256)": "d5d89eaf",
    "isValidDataSource(uint16,bytes32)": "437209a7",
    "optionsFeeds(bytes32)": "c12fd473",
    "owner()": "8da5cb5b",
    "perpFeeds(bytes32)": "c6ac557c",
    "proxiableUUID()": "52d1902d",
    "renounceOwnership()": "715018a6",
    "rvFeeds(bytes32)": "cf8e17bb",
    "singleUpdateFeeInWei()": "48b6404d",
    "spotMedianFeeds(bytes32)": "043cc783",
    "transferOwnership(address)": "f2fde38b",
    "twapFeeds(bytes32)": "3a612c32",
    "updateDataFeeds(bytes[])": "d58a8f6d",
    "upgradeToAndCall(address,bytes)": "4f1ef286",
    "validTimePeriodSeconds()": "cb718a9b",
    "version()": "54fd4d50",
    "withdraw_funds(uint256)": "5d2c53a7"
  },
  "storageLayout": {
    "storage": [
      {
        "astId": 49874,
        "contract": "src/Pragma.sol:Pragma",
        "label": "hyperlane",
        "offset": 0,
        "slot": "0",
        "type": "t_contract(IHyperlane)50691"
      },
      {
        "astId": 49878,
        "contract": "src/Pragma.sol:Pragma",
        "label": "_isValidDataSource",
        "offset": 0,
        "slot": "1",
        "type": "t_mapping(t_bytes32,t_bool)"
      },
      {
        "astId": 49883,
        "contract": "src/Pragma.sol:Pragma",
        "label": "spotMedianFeeds",
        "offset": 0,
        "slot": "2",
        "type": "t_mapping(t_bytes32,t_struct(SpotMedian)50838_storage)"
      },
      {
        "astId": 49888,
        "contract": "src/Pragma.sol:Pragma",
        "label": "twapFeeds",
        "offset": 0,
        "slot": "3",
        "type": "t_mapping(t_bytes32,t_struct(TWAP)50854_storage)"
      },
      {
        "astId": 49893,
        "contract": "src/Pragma.sol:Pragma",
        "label": "rvFeeds",
        "offset": 0,
        "slot": "4",
        "type": "t_mapping(t_bytes32,t_struct(RealizedVolatility)50872_storage)"
      },
      {
        "astId": 49898,
        "contract": "src/Pragma.sol:Pragma",
        "label": "optionsFeeds",
        "offset": 0,
        "slot": "5",
        "type": "t_mapping(t_bytes32,t_struct(Options)50898_storage)"
      },
      {
        "astId": 49903,
        "contract": "src/Pragma.sol:Pragma",
        "label": "perpFeeds",
        "offset": 0,
        "slot": "6",
        "type": "t_mapping(t_bytes32,t_struct(Perp)50910_storage)"
      },
      {
        "astId": 49277,
        "contract": "src/Pragma.sol:Pragma",
        "label": "validTimePeriodSeconds",
        "offset": 0,
        "slot": "7",
        "type": "t_uint256"
      },
      {
        "astId": 49279,
        "contract": "src/Pragma.sol:Pragma",
        "label": "singleUpdateFeeInWei",
        "offset": 0,
        "slot": "8",
        "type": "t_uint256"
      }
    ],
    "types": {
      "t_bool": {
        "encoding": "inplace",
        "label": "bool",
        "numberOfBytes": "1"
      },
      "t_bytes32": {
        "encoding": "inplace",
        "label": "bytes32",
        "numberOfBytes": "32"
      },
      "t_contract(IHyperlane)50691": {
        "encoding": "inplace",
        "label": "contract IHyperlane",
        "numberOfBytes": "20"
      },
      "t_int256": {
        "encoding": "inplace",
        "label": "int256",
        "numberOfBytes": "32"
      },
      "t_mapping(t_bytes32,t_bool)": {
        "encoding": "mapping",
        "key": "t_bytes32",
        "label": "mapping(bytes32 => bool)",
        "numberOfBytes": "32",
        "value": "t_bool"
      },
      "t_mapping(t_bytes32,t_struct(Options)50898_storage)": {
        "encoding": "mapping",
        "key": "t_bytes32",
        "label": "mapping(bytes32 => struct Options)",
        "numberOfBytes": "32",
        "value": "t_struct(Options)50898_storage"
      },
      "t_mapping(t_bytes32,t_struct(Perp)50910_storage)": {
        "encoding": "mapping",
        "key": "t_bytes32",
        "label": "mapping(bytes32 => struct Perp)",
        "numberOfBytes": "32",
        "value": "t_struct(Perp)50910_storage"
      },
      "t_mapping(t_bytes32,t_struct(RealizedVolatility)50872_storage)": {
        "encoding": "mapping",
        "key": "t_bytes32",
        "label": "mapping(bytes32 => struct RealizedVolatility)",
        "numberOfBytes": "32",
        "value": "t_struct(RealizedVolatility)50872_storage"
      },
      "t_mapping(t_bytes32,t_struct(SpotMedian)50838_storage)": {
        "encoding": "mapping",
        "key": "t_bytes32",
        "label": "mapping(bytes32 => struct SpotMedian)",
        "numberOfBytes": "32",
        "value": "t_struct(SpotMedian)50838_storage"
      },
      "t_mapping(t_bytes32,t_struct(TWAP)50854_storage)": {
        "encoding": "mapping",
        "key": "t_bytes32",
        "label": "mapping(bytes32 => struct TWAP)",
        "numberOfBytes": "32",
        "value": "t_struct(TWAP)50854_storage"
      },
      "t_struct(Metadata)50830_storage": {
        "encoding": "inplace",
        "label": "struct Metadata",
        "numberOfBytes": "64",
        "members": [
          {
            "astId": 50823,
            "contract": "src/Pragma.sol:Pragma",
            "label": "feedId",
            "offset": 0,
            "slot": "0",
            "type": "t_bytes32"
          },
          {
            "astId": 50825,
            "contract": "src/Pragma.sol:Pragma",
            "label": "timestamp",
            "offset": 0,
            "slot": "1",
            "type": "t_uint64"
          },
          {
            "astId": 50827,
            "contract": "src/Pragma.sol:Pragma",
            "label": "numberOfSources",
            "offset": 8,
            "slot": "1",
            "type": "t_uint16"
          },
          {
            "astId": 50829,
            "contract": "src/Pragma.sol:Pragma",
            "label": "decimals",
            "offset": 10,
            "slot": "1",
            "type": "t_uint8"
          }
        ]
      },
      "t_struct(Options)50898_storage": {
        "encoding": "inplace",
        "label": "struct Options",
        "numberOfBytes": "416",
        "members": [
          {
            "astId": 50875,
            "contract": "src/Pragma.sol:Pragma",
            "label": "metadata",
            "offset": 0,
            "slot": "0",
            "type": "t_struct(Metadata)50830_storage"
          },
          {
            "astId": 50877,
            "contract": "src/Pragma.sol:Pragma",
            "label": "strikePrice",
            "offset": 0,
            "slot": "2",
            "type": "t_uint256"
          },
          {
            "astId": 50879,
            "contract": "src/Pragma.sol:Pragma",
            "label": "impliedVolatility",
            "offset": 0,
            "slot": "3",
            "type": "t_uint256"
          },
          {
            "astId": 50881,
            "contract": "src/Pragma.sol:Pragma",
            "label": "timeToExpiry",
            "offset": 0,
            "slot": "4",
            "type": "t_uint256"
          },
          {
            "astId": 50883,
            "contract": "src/Pragma.sol:Pragma",
            "label": "isCall",
            "offset": 0,
            "slot": "5",
            "type": "t_bool"
          },
          {
            "astId": 50885,
            "contract": "src/Pragma.sol:Pragma",
            "label": "underlyingPrice",
            "offset": 0,
            "slot": "6",
            "type": "t_uint256"
          },
          {
            "astId": 50887,
            "contract": "src/Pragma.sol:Pragma",
            "label": "optionPrice",
            "offset": 0,
            "slot": "7",
            "type": "t_uint256"
          },
          {
            "astId": 50889,
            "contract": "src/Pragma.sol:Pragma",
            "label": "delta",
            "offset": 0,
            "slot": "8",
            "type": "t_int256"
          },
          {
            "astId": 50891,
            "contract": "src/Pragma.sol:Pragma",
            "label": "gamma",
            "offset": 0,
            "slot": "9",
            "type": "t_int256"
          },
          {
            "astId": 50893,
            "contract": "src/Pragma.sol:Pragma",
            "label": "vega",
            "offset": 0,
            "slot": "10",
            "type": "t_int256"
          },
          {
            "astId": 50895,
            "contract": "src/Pragma.sol:Pragma",
            "label": "theta",
            "offset": 0,
            "slot": "11",
            "type": "t_int256"
          },
          {
            "astId": 50897,
            "contract": "src/Pragma.sol:Pragma",
            "label": "rho",
            "offset": 0,
            "slot": "12",
            "type": "t_int256"
          }
        ]
      },
      "t_struct(Perp)50910_storage": {
        "encoding": "inplace",
        "label": "struct Perp",
        "numberOfBytes": "192",
        "members": [
          {
            "astId": 50901,
            "contract": "src/Pragma.sol:Pragma",
            "label": "metadata",
            "offset": 0,
            "slot": "0",
            "type": "t_struct(Metadata)50830_storage"
          },
          {
            "astId": 50903,
            "contract": "src/Pragma.sol:Pragma",
            "label": "markPrice",
            "offset": 0,
            "slot": "2",
            "type": "t_uint256"
          },
          {
            "astId": 50905,
            "contract": "src/Pragma.sol:Pragma",
            "label": "fundingRate",
            "offset": 0,
            "slot": "3",
            "type": "t_uint256"
          },
          {
            "astId": 50907,
            "contract": "src/Pragma.sol:Pragma",
            "label": "openInterest",
            "offset": 0,
            "slot": "4",
            "type": "t_uint256"
          },
          {
            "astId": 50909,
            "contract": "src/Pragma.sol:Pragma",
            "label": "volume",
            "offset": 0,
            "slot": "5",
            "type": "t_uint256"
          }
        ]
      },
      "t_struct(RealizedVolatility)50872_storage": {
        "encoding": "inplace",
        "label": "struct RealizedVolatility",
        "numberOfBytes": "288",
        "members": [
          {
            "astId": 50857,
            "contract": "src/Pragma.sol:Pragma",
            "label": "metadata",
            "offset": 0,
            "slot": "0",
            "type": "t_struct(Metadata)50830_storage"
          },
          {
            "astId": 50859,
            "contract": "src/Pragma.sol:Pragma",
            "label": "volatility",
            "offset": 0,
            "slot": "2",
            "type": "t_uint256"
          },
          {
            "astId": 50861,
            "contract": "src/Pragma.sol:Pragma",
            "label": "timePeriod",
            "offset": 0,
            "slot": "3",
            "type": "t_uint256"
          },
          {
            "astId": 50863,
            "contract": "src/Pragma.sol:Pragma",
            "label": "startPrice",
            "offset": 0,
            "slot": "4",
            "type": "t_uint256"
          },
          {
            "astId": 50865,
            "contract": "src/Pragma.sol:Pragma",
            "label": "endPrice",
            "offset": 0,
            "slot": "5",
            "type": "t_uint256"
          },
          {
            "astId": 50867,
            "contract": "src/Pragma.sol:Pragma",
            "label": "highPrice",
            "offset": 0,
            "slot": "6",
            "type": "t_uint256"
          },
          {
            "astId": 50869,
            "contract": "src/Pragma.sol:Pragma",
            "label": "lowPrice",
            "offset": 0,
            "slot": "7",
            "type": "t_uint256"
          },
          {
            "astId": 50871,
            "contract": "src/Pragma.sol:Pragma",
            "label": "numberOfDataPoints",
            "offset": 0,
            "slot": "8",
            "type": "t_uint256"
          }
        ]
      },
      "t_struct(SpotMedian)50838_storage": {
        "encoding": "inplace",
        "label": "struct SpotMedian",
        "numberOfBytes": "128",
        "members": [
          {
            "astId": 50833,
            "contract": "src/Pragma.sol:Pragma",
            "label": "metadata",
            "offset": 0,
            "slot": "0",
            "type": "t_struct(Metadata)50830_storage"
          },
          {
            "astId": 50835,
            "contract": "src/Pragma.sol:Pragma",
            "label": "price",
            "offset": 0,
            "slot": "2",
            "type": "t_uint256"
          },
          {
            "astId": 50837,
            "contract": "src/Pragma.sol:Pragma",
            "label": "volume",
            "offset": 0,
            "slot": "3",
            "type": "t_uint256"
          }
        ]
      },
      "t_struct(TWAP)50854_storage": {
        "encoding": "inplace",
        "label": "struct TWAP",
        "numberOfBytes": "256",
        "members": [
          {
            "astId": 50841,
            "contract": "src/Pragma.sol:Pragma",
            "label": "metadata",
            "offset": 0,
            "slot": "0",
            "type": "t_struct(Metadata)50830_storage"
          },
          {
            "astId": 50843,
            "contract": "src/Pragma.sol:Pragma",
            "label": "twapPrice",
            "offset": 0,
            "slot": "2",
            "type": "t_uint256"
          },
          {
            "astId": 50845,
            "contract": "src/Pragma.sol:Pragma",
            "label": "timePeriod",
            "offset": 0,
            "slot": "3",
            "type": "t_uint256"
          },
          {
            "astId": 50847,
            "contract": "src/Pragma.sol:Pragma",
            "label": "startPrice",
            "offset": 0,
            "slot": "4",
            "type": "t_uint256"
          },
          {
            "astId": 50849,
            "contract": "src/Pragma.sol:Pragma",
            "label": "endPrice",
            "offset": 0,
            "slot": "5",
            "type": "t_uint256"
          },
          {
            "astId": 50851,
            "contract": "src/Pragma.sol:Pragma",
            "label": "totalVolume",
            "offset": 0,
            "slot": "6",
            "type": "t_uint256"
          },
          {
            "astId": 50853,
            "contract": "src/Pragma.sol:Pragma",
            "label": "numberOfDataPoints",
            "offset": 0,
            "slot": "7",
            "type": "t_uint256"
          }
        ]
      },
      "t_uint16": {
        "encoding": "inplace",
        "label": "uint16",
        "numberOfBytes": "2"
      },
      "t_uint256": {
        "encoding": "inplace",
        "label": "uint256",
        "numberOfBytes": "32"
      },
      "t_uint64": {
        "encoding": "inplace",
        "label": "uint64",
        "numberOfBytes": "8"
      },
      "t_uint8": {
        "encoding": "inplace",
        "label": "uint8",
        "numberOfBytes": "1"
      }
    }
  },
  "id": 41
}